{"abi":[{"type":"function","name":"getProfile","inputs":[{"name":"player","type":"address","internalType":"address"}],"outputs":[{"name":"username","type":"string","internalType":"string"},{"name":"wins","type":"uint64","internalType":"uint64"},{"name":"losses","type":"uint64","internalType":"uint64"},{"name":"registered","type":"bool","internalType":"bool"}],"stateMutability":"view"},{"type":"function","name":"isAvailable","inputs":[{"name":"name","type":"string","internalType":"string"}],"outputs":[{"name":"","type":"bool","internalType":"bool"}],"stateMutability":"view"},{"type":"function","name":"recordWin","inputs":[{"name":"loser","type":"address","internalType":"address"}],"outputs":[],"stateMutability":"nonpayable"},{"type":"function","name":"setUsername","inputs":[{"name":"name","type":"string","internalType":"string"}],"outputs":[],"stateMutability":"nonpayable"},{"type":"function","name":"usernameOwner","inputs":[{"name":"","type":"bytes32","internalType":"bytes32"}],"outputs":[{"name":"","type":"address","internalType":"address"}],"stateMutability":"view"},{"type":"event","name":"Registered","inputs":[{"name":"player","type":"address","indexed":true,"internalType":"address"},{"name":"username","type":"string","indexed":false,"internalType":"string"}],"anonymous":false},{"type":"event","name":"UsernameChanged","inputs":[{"name":"player","type":"address","indexed":true,"internalType":"address"},{"name":"oldName","type":"string","indexed":false,"internalType":"string"},{"name":"newName","type":"string","indexed":false,"internalType":"string"}],"anonymous":false},{"type":"event","name":"WinRecorded","inputs":[{"name":"winner","type":"address","indexed":true,"internalType":"address"},{"name":"loser","type":"address","indexed":true,"internalType":"address"}],"anonymous":false},{"type":"error","name":"EmptyUsername","inputs":[]},{"type":"error","name":"NotRegistered","inputs":[]},{"type":"error","name":"UsernameTaken","inputs":[]}],"bytecode":{"object":"0x608060405234801561000f575f80fd5b50610a788061001d5f395ff3fe608060405234801561000f575f80fd5b5060043610610055575f3560e01c80630f53a47014610059578063739b47ca14610085578063965306aa1461009a578063a6c71aec146100bd578063ed59313a146100fd575b5f80fd5b61006c6100673660046106ee565b610110565b60405161007c949392919061075e565b60405180910390f35b6100986100933660046106ee565b6101f9565b005b6100ad6100a8366004610799565b61032a565b604051901515815260200161007c565b6100e56100cb366004610805565b60016020525f90815260409020546001600160a01b031681565b6040516001600160a01b03909116815260200161007c565b61009861010b366004610799565b610399565b6001600160a01b0381165f908152602081905260408120600181015481546060939283928392829167ffffffffffffffff8082169268010000000000000000830490911691600160801b900460ff1690849061016b9061081c565b80601f01602080910402602001604051908101604052809291908181526020018280546101979061081c565b80156101e25780601f106101b9576101008083540402835291602001916101e2565b820191905f5260205f20905b8154815290600101906020018083116101c557829003601f168201915b505050505093509450945094509450509193509193565b335f9081526020819052604090206001810154600160801b900460ff166102335760405163aba4733960e01b815260040160405180910390fd5b600181810180545f9061025190849067ffffffffffffffff16610868565b92506101000a81548167ffffffffffffffff021916908367ffffffffffffffff16021790555060015f80846001600160a01b03166001600160a01b031681526020019081526020015f2060010160088282829054906101000a900467ffffffffffffffff166102c09190610868565b92506101000a81548167ffffffffffffffff021916908367ffffffffffffffff160217905550816001600160a01b0316336001600160a01b03167f4d007f90b82ece79b741ff719037108dac34780d0c394e070171c962f6f1cba860405160405180910390a35050565b5f806001600160a01b031660015f61037686868080601f0160208091040260200160405190810160405280939291908181526020018383808284375f9201919091525061060492505050565b815260208101919091526040015f20546001600160a01b03161490505b92915050565b8015806103a65750601881115b156103c457604051634ccdfcb560e11b815260040160405180910390fd5b5f61040383838080601f0160208091040260200160405190810160405280939291908181526020018383808284375f9201919091525061060492505050565b5f818152600160205260409020549091506001600160a01b0316801580159061043557506001600160a01b0381163314155b1561045357604051636bc324ad60e01b815260040160405180910390fd5b335f908152602081905260408120805490919082906104719061081c565b80601f016020809104026020016040519081016040528092919081815260200182805461049d9061081c565b80156104e85780601f106104bf576101008083540402835291602001916104e8565b820191905f5260205f20905b8154815290600101906020018083116104cb57829003601f168201915b5050505050905080515f146105215760015f61050383610604565b815260208101919091526040015f2080546001600160a01b03191690555b8161052d8688836108e9565b505f84815260016020819052604090912080546001600160a01b0319163317905582015460ff600160801b909104166105b65760018201805460ff60801b1916600160801b17905560405133907fb3eccf73f39b1c07947c780b2b39df2a1bb058b4037b0a42d0881ca1a028a132906105a990899089906109cb565b60405180910390a26105fc565b336001600160a01b03167f10022a11494e4dcaccdda542dc8a420f8a1c3397f37d5bd035a805e79e1a32ee8288886040516105f3939291906109e6565b60405180910390a25b505050505050565b5f61060e8261061c565b805190602001209050919050565b6060815f5b81518110156106e757604160f81b82828151811061064157610641610a15565b01602001516001600160f81b031916108015906106825750605a60f81b82828151811061067057610670610a15565b01602001516001600160f81b03191611155b156106df5781818151811061069957610699610a15565b602001015160f81c60f81b60f81c60206106b39190610a29565b60f81b8282815181106106c8576106c8610a15565b60200101906001600160f81b03191690815f1a9053505b600101610621565b5092915050565b5f602082840312156106fe575f80fd5b81356001600160a01b0381168114610714575f80fd5b9392505050565b5f81518084525f5b8181101561073f57602081850181015186830182015201610723565b505f602082860101526020601f19601f83011685010191505092915050565b608081525f610770608083018761071b565b67ffffffffffffffff958616602084015293909416604082015290151560609091015292915050565b5f80602083850312156107aa575f80fd5b823567ffffffffffffffff808211156107c1575f80fd5b818501915085601f8301126107d4575f80fd5b8135818111156107e2575f80fd5b8660208285010111156107f3575f80fd5b60209290920196919550909350505050565b5f60208284031215610815575f80fd5b5035919050565b600181811c9082168061083057607f821691505b60208210810361084e57634e487b7160e01b5f52602260045260245ffd5b50919050565b634e487b7160e01b5f52601160045260245ffd5b67ffffffffffffffff8181168382160190808211156106e7576106e7610854565b634e487b7160e01b5f52604160045260245ffd5b601f8211156108e457805f5260205f20601f840160051c810160208510156108c25750805b601f840160051c820191505b818110156108e1575f81556001016108ce565b50505b505050565b67ffffffffffffffff83111561090157610901610889565b6109158361090f835461081c565b8361089d565b5f601f841160018114610946575f851561092f5750838201355b5f19600387901b1c1916600186901b1783556108e1565b5f83815260208120601f198716915b828110156109755786850135825560209485019460019092019101610955565b5086821015610991575f1960f88860031b161c19848701351681555b505060018560011b0183555050505050565b81835281816020850137505f828201602090810191909152601f909101601f19169091010190565b602081525f6109de6020830184866109a3565b949350505050565b604081525f6109f8604083018661071b565b8281036020840152610a0b8185876109a3565b9695505050505050565b634e487b7160e01b5f52603260045260245ffd5b60ff81811683821601908111156103935761039361085456fea2646970667358221220de67cfd9c139865561f362ee91b87f18b6d6aba0b624ce5765c8d2ff72dc23ef64736f6c63430008180033","linkReferences":{}},"methodIdentifiers":{"getProfile(address)":"0f53a470","isAvailable(string)":"965306aa","recordWin(address)":"739b47ca","setUsername(string)":"ed59313a","usernameOwner(bytes32)":"a6c71aec"},"id":21}